{
  "_format": "hh-sol-artifact-1",
  "contractName": "MasterChef",
  "sourceName": "contracts/MasterChef.sol",
  "abi": [
    {
      "inputs": [
        {
          "internalType": "address",
          "name": "narfexTokenAddress",
          "type": "address"
        },
        {
          "internalType": "uint256",
          "name": "_rewardPerBlock",
          "type": "uint256"
        },
        {
          "internalType": "uint256",
          "name": "_commissionInterval",
          "type": "uint256"
        },
        {
          "internalType": "uint256",
          "name": "_harvestInterval",
          "type": "uint256"
        },
        {
          "internalType": "uint256",
          "name": "_earlyHarvestCommission",
          "type": "uint256"
        },
        {
          "internalType": "bool",
          "name": "_isUnrewardEarlyWithdrawals",
          "type": "bool"
        },
        {
          "internalType": "uint256",
          "name": "_rewardCancelInterval",
          "type": "uint256"
        },
        {
          "internalType": "uint256",
          "name": "_referralPercent",
          "type": "uint256"
        }
      ],
      "stateMutability": "nonpayable",
      "type": "constructor"
    },
    {
      "anonymous": false,
      "inputs": [
        {
          "indexed": true,
          "internalType": "address",
          "name": "caller",
          "type": "address"
        },
        {
          "indexed": true,
          "internalType": "address",
          "name": "pair",
          "type": "address"
        },
        {
          "indexed": true,
          "internalType": "uint256",
          "name": "block",
          "type": "uint256"
        }
      ],
      "name": "ClearReward",
      "type": "event"
    },
    {
      "anonymous": false,
      "inputs": [
        {
          "indexed": true,
          "internalType": "address",
          "name": "pair",
          "type": "address"
        },
        {
          "indexed": false,
          "internalType": "uint256",
          "name": "rewardPerBlock",
          "type": "uint256"
        },
        {
          "indexed": false,
          "internalType": "uint256",
          "name": "poolIndex",
          "type": "uint256"
        }
      ],
      "name": "CreatePool",
      "type": "event"
    },
    {
      "anonymous": false,
      "inputs": [
        {
          "indexed": true,
          "internalType": "address",
          "name": "caller",
          "type": "address"
        },
        {
          "indexed": true,
          "internalType": "address",
          "name": "pair",
          "type": "address"
        },
        {
          "indexed": false,
          "internalType": "uint256",
          "name": "amount",
          "type": "uint256"
        },
        {
          "indexed": true,
          "internalType": "uint256",
          "name": "block",
          "type": "uint256"
        },
        {
          "indexed": false,
          "internalType": "uint256",
          "name": "poolSize",
          "type": "uint256"
        }
      ],
      "name": "Deposit",
      "type": "event"
    },
    {
      "anonymous": false,
      "inputs": [
        {
          "indexed": true,
          "internalType": "address",
          "name": "caller",
          "type": "address"
        },
        {
          "indexed": true,
          "internalType": "address",
          "name": "pair",
          "type": "address"
        },
        {
          "indexed": true,
          "internalType": "uint256",
          "name": "block",
          "type": "uint256"
        },
        {
          "indexed": false,
          "internalType": "uint256",
          "name": "reward",
          "type": "uint256"
        },
        {
          "indexed": false,
          "internalType": "uint256",
          "name": "commission",
          "type": "uint256"
        }
      ],
      "name": "Harvest",
      "type": "event"
    },
    {
      "anonymous": false,
      "inputs": [
        {
          "indexed": true,
          "internalType": "address",
          "name": "previousOwner",
          "type": "address"
        },
        {
          "indexed": true,
          "internalType": "address",
          "name": "newOwner",
          "type": "address"
        }
      ],
      "name": "OwnershipTransferred",
      "type": "event"
    },
    {
      "anonymous": false,
      "inputs": [
        {
          "indexed": true,
          "internalType": "address",
          "name": "caller",
          "type": "address"
        },
        {
          "indexed": true,
          "internalType": "address",
          "name": "pair",
          "type": "address"
        },
        {
          "indexed": false,
          "internalType": "uint256",
          "name": "amount",
          "type": "uint256"
        },
        {
          "indexed": true,
          "internalType": "uint256",
          "name": "block",
          "type": "uint256"
        },
        {
          "indexed": false,
          "internalType": "uint256",
          "name": "poolSize",
          "type": "uint256"
        }
      ],
      "name": "Withdraw",
      "type": "event"
    },
    {
      "inputs": [],
      "name": "commissionInterval",
      "outputs": [
        {
          "internalType": "uint256",
          "name": "",
          "type": "uint256"
        }
      ],
      "stateMutability": "view",
      "type": "function"
    },
    {
      "inputs": [
        {
          "internalType": "address",
          "name": "pair",
          "type": "address"
        },
        {
          "internalType": "uint256",
          "name": "_rewardPerBlock",
          "type": "uint256"
        }
      ],
      "name": "createPool",
      "outputs": [
        {
          "internalType": "uint256",
          "name": "",
          "type": "uint256"
        }
      ],
      "stateMutability": "nonpayable",
      "type": "function"
    },
    {
      "inputs": [],
      "name": "defaultRewardPerBlock",
      "outputs": [
        {
          "internalType": "uint256",
          "name": "",
          "type": "uint256"
        }
      ],
      "stateMutability": "view",
      "type": "function"
    },
    {
      "inputs": [
        {
          "internalType": "address",
          "name": "pair",
          "type": "address"
        },
        {
          "internalType": "uint256",
          "name": "amount",
          "type": "uint256"
        },
        {
          "internalType": "address",
          "name": "referAgent",
          "type": "address"
        }
      ],
      "name": "deposit",
      "outputs": [],
      "stateMutability": "nonpayable",
      "type": "function"
    },
    {
      "inputs": [],
      "name": "earlyHarvestCommission",
      "outputs": [
        {
          "internalType": "uint256",
          "name": "",
          "type": "uint256"
        }
      ],
      "stateMutability": "view",
      "type": "function"
    },
    {
      "inputs": [
        {
          "internalType": "address",
          "name": "pair",
          "type": "address"
        },
        {
          "internalType": "address",
          "name": "userAddress",
          "type": "address"
        }
      ],
      "name": "getIsEarlyHarvest",
      "outputs": [
        {
          "internalType": "bool",
          "name": "",
          "type": "bool"
        }
      ],
      "stateMutability": "view",
      "type": "function"
    },
    {
      "inputs": [
        {
          "internalType": "address",
          "name": "pair",
          "type": "address"
        },
        {
          "internalType": "address",
          "name": "userAddress",
          "type": "address"
        }
      ],
      "name": "getIsUserCanHarvest",
      "outputs": [
        {
          "internalType": "bool",
          "name": "",
          "type": "bool"
        }
      ],
      "stateMutability": "view",
      "type": "function"
    },
    {
      "inputs": [],
      "name": "getNarfexLeft",
      "outputs": [
        {
          "internalType": "uint256",
          "name": "",
          "type": "uint256"
        }
      ],
      "stateMutability": "view",
      "type": "function"
    },
    {
      "inputs": [
        {
          "internalType": "address",
          "name": "pair",
          "type": "address"
        }
      ],
      "name": "getPoolData",
      "outputs": [
        {
          "internalType": "address",
          "name": "token0",
          "type": "address"
        },
        {
          "internalType": "address",
          "name": "token1",
          "type": "address"
        },
        {
          "internalType": "string",
          "name": "token0symbol",
          "type": "string"
        },
        {
          "internalType": "string",
          "name": "token1symbol",
          "type": "string"
        },
        {
          "internalType": "uint256",
          "name": "size",
          "type": "uint256"
        },
        {
          "internalType": "uint256",
          "name": "rewardPerBlock",
          "type": "uint256"
        }
      ],
      "stateMutability": "view",
      "type": "function"
    },
    {
      "inputs": [
        {
          "internalType": "address",
          "name": "pair",
          "type": "address"
        }
      ],
      "name": "getPoolRewardPerBlock",
      "outputs": [
        {
          "internalType": "uint256",
          "name": "",
          "type": "uint256"
        }
      ],
      "stateMutability": "view",
      "type": "function"
    },
    {
      "inputs": [
        {
          "internalType": "address",
          "name": "pair",
          "type": "address"
        }
      ],
      "name": "getPoolSize",
      "outputs": [
        {
          "internalType": "uint256",
          "name": "",
          "type": "uint256"
        }
      ],
      "stateMutability": "view",
      "type": "function"
    },
    {
      "inputs": [
        {
          "internalType": "address",
          "name": "pair",
          "type": "address"
        },
        {
          "internalType": "address",
          "name": "userAddress",
          "type": "address"
        }
      ],
      "name": "getPoolUserData",
      "outputs": [
        {
          "internalType": "uint256",
          "name": "balance",
          "type": "uint256"
        },
        {
          "internalType": "uint256",
          "name": "userPool",
          "type": "uint256"
        },
        {
          "internalType": "uint256",
          "name": "reward",
          "type": "uint256"
        },
        {
          "internalType": "bool",
          "name": "isCanHarvest",
          "type": "bool"
        }
      ],
      "stateMutability": "view",
      "type": "function"
    },
    {
      "inputs": [],
      "name": "getPoolsCount",
      "outputs": [
        {
          "internalType": "uint256",
          "name": "",
          "type": "uint256"
        }
      ],
      "stateMutability": "view",
      "type": "function"
    },
    {
      "inputs": [],
      "name": "getSettings",
      "outputs": [
        {
          "internalType": "uint256",
          "name": "uintDefaultRewardPerBlock",
          "type": "uint256"
        },
        {
          "internalType": "uint256",
          "name": "uintCommissionInterval",
          "type": "uint256"
        },
        {
          "internalType": "uint256",
          "name": "uintHarvestInterval",
          "type": "uint256"
        },
        {
          "internalType": "uint256",
          "name": "uintEarlyHarvestCommission",
          "type": "uint256"
        },
        {
          "internalType": "bool",
          "name": "boolIsUnrewardEarlyWithdrawals",
          "type": "bool"
        },
        {
          "internalType": "uint256",
          "name": "uintRewardCancelInterval",
          "type": "uint256"
        },
        {
          "internalType": "uint256",
          "name": "uintReferralPercent",
          "type": "uint256"
        }
      ],
      "stateMutability": "view",
      "type": "function"
    },
    {
      "inputs": [
        {
          "internalType": "address",
          "name": "pair",
          "type": "address"
        },
        {
          "internalType": "address",
          "name": "userAddress",
          "type": "address"
        }
      ],
      "name": "getUserLastHarvestBlock",
      "outputs": [
        {
          "internalType": "uint256",
          "name": "",
          "type": "uint256"
        }
      ],
      "stateMutability": "view",
      "type": "function"
    },
    {
      "inputs": [
        {
          "internalType": "address",
          "name": "pair",
          "type": "address"
        },
        {
          "internalType": "address",
          "name": "userAddress",
          "type": "address"
        }
      ],
      "name": "getUserPoolSize",
      "outputs": [
        {
          "internalType": "uint256",
          "name": "",
          "type": "uint256"
        }
      ],
      "stateMutability": "view",
      "type": "function"
    },
    {
      "inputs": [
        {
          "internalType": "address",
          "name": "pair",
          "type": "address"
        },
        {
          "internalType": "address",
          "name": "userAddress",
          "type": "address"
        }
      ],
      "name": "getUserReward",
      "outputs": [
        {
          "internalType": "uint256",
          "name": "",
          "type": "uint256"
        }
      ],
      "stateMutability": "view",
      "type": "function"
    },
    {
      "inputs": [
        {
          "internalType": "address",
          "name": "pair",
          "type": "address"
        }
      ],
      "name": "harvest",
      "outputs": [
        {
          "internalType": "uint256",
          "name": "",
          "type": "uint256"
        }
      ],
      "stateMutability": "nonpayable",
      "type": "function"
    },
    {
      "inputs": [],
      "name": "harvestInterval",
      "outputs": [
        {
          "internalType": "uint256",
          "name": "",
          "type": "uint256"
        }
      ],
      "stateMutability": "view",
      "type": "function"
    },
    {
      "inputs": [],
      "name": "isUnrewardEarlyWithdrawals",
      "outputs": [
        {
          "internalType": "bool",
          "name": "",
          "type": "bool"
        }
      ],
      "stateMutability": "view",
      "type": "function"
    },
    {
      "inputs": [],
      "name": "owner",
      "outputs": [
        {
          "internalType": "address",
          "name": "",
          "type": "address"
        }
      ],
      "stateMutability": "view",
      "type": "function"
    },
    {
      "inputs": [
        {
          "internalType": "address",
          "name": "",
          "type": "address"
        }
      ],
      "name": "pools",
      "outputs": [
        {
          "internalType": "contract IBEP20",
          "name": "token",
          "type": "address"
        },
        {
          "internalType": "uint256",
          "name": "rewardPerBlock",
          "type": "uint256"
        },
        {
          "internalType": "bool",
          "name": "isExists",
          "type": "bool"
        }
      ],
      "stateMutability": "view",
      "type": "function"
    },
    {
      "inputs": [],
      "name": "poolsCount",
      "outputs": [
        {
          "internalType": "uint256",
          "name": "",
          "type": "uint256"
        }
      ],
      "stateMutability": "view",
      "type": "function"
    },
    {
      "inputs": [
        {
          "internalType": "uint256",
          "name": "",
          "type": "uint256"
        }
      ],
      "name": "poolsList",
      "outputs": [
        {
          "internalType": "address",
          "name": "",
          "type": "address"
        }
      ],
      "stateMutability": "view",
      "type": "function"
    },
    {
      "inputs": [],
      "name": "referralPercent",
      "outputs": [
        {
          "internalType": "uint256",
          "name": "",
          "type": "uint256"
        }
      ],
      "stateMutability": "view",
      "type": "function"
    },
    {
      "inputs": [],
      "name": "renounceOwnership",
      "outputs": [],
      "stateMutability": "nonpayable",
      "type": "function"
    },
    {
      "inputs": [],
      "name": "rewardCancelInterval",
      "outputs": [
        {
          "internalType": "uint256",
          "name": "",
          "type": "uint256"
        }
      ],
      "stateMutability": "view",
      "type": "function"
    },
    {
      "inputs": [],
      "name": "rewardToken",
      "outputs": [
        {
          "internalType": "contract IBEP20",
          "name": "",
          "type": "address"
        }
      ],
      "stateMutability": "view",
      "type": "function"
    },
    {
      "inputs": [
        {
          "internalType": "uint256",
          "name": "interval",
          "type": "uint256"
        }
      ],
      "name": "setCommissionInterval",
      "outputs": [],
      "stateMutability": "nonpayable",
      "type": "function"
    },
    {
      "inputs": [
        {
          "internalType": "uint256",
          "name": "reward",
          "type": "uint256"
        }
      ],
      "name": "setDefaultRewardPerBlock",
      "outputs": [],
      "stateMutability": "nonpayable",
      "type": "function"
    },
    {
      "inputs": [
        {
          "internalType": "uint256",
          "name": "percents",
          "type": "uint256"
        }
      ],
      "name": "setEarlyHarvesCommission",
      "outputs": [],
      "stateMutability": "nonpayable",
      "type": "function"
    },
    {
      "inputs": [
        {
          "internalType": "uint256",
          "name": "interval",
          "type": "uint256"
        }
      ],
      "name": "setHarvestInterval",
      "outputs": [],
      "stateMutability": "nonpayable",
      "type": "function"
    },
    {
      "inputs": [
        {
          "internalType": "address",
          "name": "pair",
          "type": "address"
        },
        {
          "internalType": "uint256",
          "name": "reward",
          "type": "uint256"
        }
      ],
      "name": "setPoolRewardPerBlock",
      "outputs": [],
      "stateMutability": "nonpayable",
      "type": "function"
    },
    {
      "inputs": [
        {
          "internalType": "uint256",
          "name": "percent",
          "type": "uint256"
        }
      ],
      "name": "setReferralPercent",
      "outputs": [],
      "stateMutability": "nonpayable",
      "type": "function"
    },
    {
      "inputs": [
        {
          "internalType": "uint256",
          "name": "interval",
          "type": "uint256"
        }
      ],
      "name": "setRewardCancelInterval",
      "outputs": [],
      "stateMutability": "nonpayable",
      "type": "function"
    },
    {
      "inputs": [
        {
          "internalType": "address",
          "name": "agent",
          "type": "address"
        }
      ],
      "name": "setUserReferAgent",
      "outputs": [
        {
          "internalType": "bool",
          "name": "",
          "type": "bool"
        }
      ],
      "stateMutability": "nonpayable",
      "type": "function"
    },
    {
      "inputs": [],
      "name": "toggleRewardClearingForEarlyWithdrawals",
      "outputs": [],
      "stateMutability": "nonpayable",
      "type": "function"
    },
    {
      "inputs": [
        {
          "internalType": "address",
          "name": "newOwner",
          "type": "address"
        }
      ],
      "name": "transferOwnership",
      "outputs": [],
      "stateMutability": "nonpayable",
      "type": "function"
    },
    {
      "inputs": [
        {
          "internalType": "uint256",
          "name": "reward",
          "type": "uint256"
        }
      ],
      "name": "updateAllPoolsRewardsSizes",
      "outputs": [],
      "stateMutability": "nonpayable",
      "type": "function"
    },
    {
      "inputs": [
        {
          "internalType": "address",
          "name": "pair",
          "type": "address"
        },
        {
          "internalType": "uint256",
          "name": "amount",
          "type": "uint256"
        }
      ],
      "name": "withdraw",
      "outputs": [],
      "stateMutability": "nonpayable",
      "type": "function"
    },
    {
      "inputs": [
        {
          "internalType": "uint256",
          "name": "_amount",
          "type": "uint256"
        }
      ],
      "name": "withdrawNarfex",
      "outputs": [],
      "stateMutability": "nonpayable",
      "type": "function"
    }
  ],
  "bytecode": "0x6080604052670de0b6b3a76400006003556212750060048190556170806005908155600a6006556007805460ff191690556008919091556009553480156200004657600080fd5b506040516200277738038062002777833981016040819052620000699162000133565b600080546001600160a01b031916339081178255604051909182917f8be0079c531659141344cd1fd0a4f28419497f9722a3daafe3b4186f6b6457e0908290a35060018055600280546001600160a01b0319166001600160a01b038a161790558615620000d65760038790555b8515620000e35760048690555b8415620000f05760058590555b8315620000fd5760068490555b6007805460ff19168415151790558115620001185760088290555b8015620001255760098190555b5050505050505050620001b9565b600080600080600080600080610100898b0312156200015157600080fd5b88516001600160a01b03811681146200016957600080fd5b809850506020890151965060408901519550606089015194506080890151935060a089015180151581146200019d57600080fd5b60c08a015160e0909a0151989b979a5095989497939692505050565b6125ae80620001c96000396000f3fe608060405234801561001057600080fd5b50600436106102535760003560e01c80638567415f11610146578063b4ac6860116100c3578063da5432fc11610087578063da5432fc146105c0578063f2fde38b146105c9578063f3fef3a3146105dc578063f45346dc146105ef578063f7c618c114610602578063f84b94e11461061557600080fd5b8063b4ac686014610582578063b8a639e41461058a578063b9f43b8314610592578063d0bdd0ad146105a5578063da0bb03a146105b857600080fd5b8063963580741161010a57806396358074146104d9578063a0f7db90146104ec578063a4063dbc146104f9578063a706d9951461055c578063a79121fe1461056f57600080fd5b80638567415f1461043657806385b4bb53146104495780638c788de0146104985780638da5cb5b146104a1578063924c37bc146104c657600080fd5b806320fc0fc6116101d45780635ab764ed116101985780635ab764ed146103dc5780636129f25f146103ef578063715018a61461040257806373b934211461040a57806383883fb31461041357600080fd5b806320fc0fc61461036557806322e51ce61461039a578063343dfb7e146103ad57806338d7aae1146103b6578063544759fe146103c957600080fd5b8063105c70d81161021b578063105c70d8146102e357806312d361711461030f57806313d21cdf1461032257806314dc0ce01461034757806318f6af661461035057600080fd5b8063082710a9146102585780630a60368d146102745780630e5c011e1461027d5780630e95ec24146102905780630f99c1c4146102a3575b600080fd5b61026160045481565b6040519081526020015b60405180910390f35b61026160035481565b61026161028b3660046120b3565b610628565b61026161029e3660046120d0565b610790565b6102616102b13660046120d0565b6001600160a01b039182166000908152600a602090815260408083209390941682526001909201909152206002015490565b6102616102f13660046120b3565b6001600160a01b03166000908152600a602052604090206004015490565b61026161031d366004612109565b6107f3565b6103356103303660046120b3565b610940565b60405161026b9695949392919061218d565b61026160055481565b61036361035e3660046121e1565b610bfa565b005b6103786103733660046120d0565b610c29565b604080519485526020850193909352918301521515606082015260800161026b565b6102616103a83660046120b3565b610cce565b61026160095481565b6103636103c43660046121e1565b610d5b565b6103636103d73660046121e1565b610d8a565b6102616103ea3660046120d0565b610db9565b6103636103fd3660046121e1565b6110ea565b610363611119565b61026160065481565b6104266104213660046120d0565b61118d565b604051901515815260200161026b565b6103636104443660046121e1565b611213565b60035460045460055460065460075460085460095460408051978852602088019690965294860193909352606085019190915260ff161515608084015260a083015260c082015260e00161026b565b610261600c5481565b6000546001600160a01b03165b6040516001600160a01b03909116815260200161026b565b6103636104d4366004612109565b6112a9565b6104266104e73660046120b3565b6112f2565b6007546104269060ff1681565b6105356105073660046120b3565b600a602052600090815260409020805460048201546005909201546001600160a01b03909116919060ff1683565b604080516001600160a01b039094168452602084019290925215159082015260600161026b565b61042661056a3660046120d0565b611337565b61036361057d3660046121e1565b61137d565b600b54610261565b6103636113ac565b6104ae6105a03660046121e1565b6113ea565b6103636105b33660046121e1565b611414565b610261611443565b61026160085481565b6103636105d73660046120b3565b6114b5565b6103636105ea366004612109565b61159f565b6103636105fd3660046121fa565b611828565b6002546104ae906001600160a01b031681565b6103636106233660046121e1565b611b5c565b6001600160a01b0381166000908152600a60209081526040808320338085526001909101909252822090829061065f908590610db9565b905080600003610673575060009392505050565b61067d843361118d565b1561077c57600061068e8533611337565b6106995760006106b3565b6064600654836106a99190612252565b6106b39190612271565b905080156106c8576106c58183612293565b91505b6002546106df906001600160a01b03163384611c19565b604080518381526020810183905243916001600160a01b0388169133917fd25759d838eb0a46600f8f327cce144e61d7caefbef27010fe31e2aab091704f910160405180910390a4426005840155436002840155336000908152600d60205260409020546001600160a01b03168015610772576107728161075f85611c7c565b6002546001600160a01b03169190611c19565b5090949350505050565b600382015543600290910155506000919050565b6001600160a01b0382166000908152600a60205260408120600581015460ff1680156107bf5750600281015415155b156107e7576001600160a01b03831660009081526001909101602052604090205490506107ed565b60009150505b92915050565b600080546001600160a01b031633146108275760405162461bcd60e51b815260040161081e906122aa565b60405180910390fd5b81600081900361083657506003545b6001600160a01b0384166000818152600a6020526040902080546001600160a01b03191690911781556060805190919061087790600283019060809061203b565b5060048101839055600581018054600160ff199091168117909155600b8054808301825560008281527f0175b7a638427703f0dbe7bb9bbf987a2551717b34e79f33b5b1008d1fa01db990910180546001600160a01b0319166001600160a01b038b161790559054600c81905590916108ef91612293565b60408051868152602081018390529192506001600160a01b038916917f77db383b85b26e0329a36642c94759c45a544a3b07ecdcb8a78b1407a8db23fb910160405180910390a29695505050505050565b6000806060806000806000600a6000896001600160a01b03166001600160a01b03168152602001908152602001600020905060008890506000816001600160a01b0316630dfe16816040518163ffffffff1660e01b8152600401602060405180830381865afa1580156109b7573d6000803e3d6000fd5b505050506040513d601f19601f820116820180604052508101906109db91906122df565b90506000826001600160a01b031663d21220a76040518163ffffffff1660e01b8152600401602060405180830381865afa158015610a1d573d6000803e3d6000fd5b505050506040513d601f19601f82011682018060405250810190610a4191906122df565b9050826001600160a01b0316630dfe16816040518163ffffffff1660e01b8152600401602060405180830381865afa158015610a81573d6000803e3d6000fd5b505050506040513d601f19601f82011682018060405250810190610aa591906122df565b836001600160a01b031663d21220a76040518163ffffffff1660e01b8152600401602060405180830381865afa158015610ae3573d6000803e3d6000fd5b505050506040513d601f19601f82011682018060405250810190610b0791906122df565b836001600160a01b03166395d89b416040518163ffffffff1660e01b8152600401600060405180830381865afa158015610b45573d6000803e3d6000fd5b505050506040513d6000823e601f3d908101601f19168201604052610b6d9190810190612312565b836001600160a01b03166395d89b416040518163ffffffff1660e01b8152600401600060405180830381865afa158015610bab573d6000803e3d6000fd5b505050506040513d6000823e601f3d908101601f19168201604052610bd39190810190612312565b610bdc8f610cce565b88600401549950995099509950995099505050505091939550919395565b6000546001600160a01b03163314610c245760405162461bcd60e51b815260040161081e906122aa565b600355565b6040516370a0823160e01b81526001600160a01b0382811660048301526000918291829182918791908216906370a0823190602401602060405180830381865afa158015610c7b573d6000803e3d6000fd5b505050506040513d601f19601f82011682018060405250810190610c9f91906123b4565b610ca98888610790565b610cb38989610db9565b610cbd8a8a61118d565b929a91995097509095509350505050565b6001600160a01b0381166000908152600a602052604081206005015460ff168015610d1357506001600160a01b0382166000908152600a602052604090206002015415155b15610d53576001600160a01b0382166000908152600a6020526040812060030190610d3d84611c98565b8152602001908152602001600020549050919050565b506000919050565b6000546001600160a01b03163314610d855760405162461bcd60e51b815260040161081e906122aa565b600555565b6000546001600160a01b03163314610db45760405162461bcd60e51b815260040161081e906122aa565b600855565b6001600160a01b038083166000908152600a602090815260408083209385168352600184019091528120600381015491929183610df68787610790565b905080600003610e0d5760009450505050506107ed565b83546040805163313ce56760e01b815290516000926001600160a01b03169163313ce5679160048083019260209291908290030181865afa158015610e56573d6000803e3d6000fd5b505050506040513d601f19601f82011682018060405250810190610e7a91906123cd565b60ff1690506000846001015490505b60028601548110156110dd576002860154600090610ea88360016123f0565b10610eb35743610ede565b60028701610ec28360016123f0565b81548110610ed257610ed2612408565b90600052602060002001545b90508086600201546001610ef291906123f0565b1115610efe57506110cb565b6000876002018381548110610f1557610f15612408565b906000526020600020015487600201546001610f3191906123f0565b11610f6657876002018381548110610f4b57610f4b612408565b906000526020600020015482610f619190612293565b610f80565b6002870154610f759083612293565b610f809060016123f0565b905060008860030160008a6002018681548110610f9f57610f9f612408565b90600052602060002001548152602001908152602001600020541161102c5760405162461bcd60e51b815260206004820152603f60248201527f5b676574557365725265776172645d204275673a20756e65787065637465642060448201527f656d70747920706f6f6c206f6e20736f6d6520626c6f636b732072616e676500606482015260840161081e565b60008860030160008a600201868154811061104957611049612408565b906000526020600020015481526020019081526020016000205485600a6110709190612502565b61107a9088612252565b6110849190612271565b9050600061109386600a612502565b838b60040154846110a49190612252565b6110ae9190612252565b6110b89190612271565b90506110c481896123f0565b9750505050505b806110d58161250e565b915050610e89565b5091979650505050505050565b6000546001600160a01b031633146111145760405162461bcd60e51b815260040161081e906122aa565b600955565b6000546001600160a01b031633146111435760405162461bcd60e51b815260040161081e906122aa565b600080546040516001600160a01b03909116907f8be0079c531659141344cd1fd0a4f28419497f9722a3daafe3b4186f6b6457e0908390a3600080546001600160a01b0319169055565b6001600160a01b038083166000908152600a6020908152604080832093851683526001909301905290812060075460ff166111db574260055482600501546111d591906123f0565b1061120b565b4260085482600401546111ee91906123f0565b10801561120b575042600554826005015461120991906123f0565b105b949350505050565b6000546001600160a01b0316331461123d5760405162461bcd60e51b815260040161081e906122aa565b61124681610bfa565b60005b600b548110156112a55781600a6000600b848154811061126b5761126b612408565b60009182526020808320909101546001600160a01b031683528201929092526040019020600401558061129d8161250e565b915050611249565b5050565b6000546001600160a01b031633146112d35760405162461bcd60e51b815260040161081e906122aa565b6001600160a01b039091166000908152600a6020526040902060040155565b6000336001600160a01b03831614610d535750336000908152600d6020526040902080546001600160a01b0319166001600160a01b0392909216919091179055600190565b600480546001600160a01b038085166000908152600a60209081526040808320938716835260019093019052908120909201544291611375916123f0565b119392505050565b6000546001600160a01b031633146113a75760405162461bcd60e51b815260040161081e906122aa565b600655565b6000546001600160a01b031633146113d65760405162461bcd60e51b815260040161081e906122aa565b6007805460ff19811660ff90911615179055565b600b81815481106113fa57600080fd5b6000918252602090912001546001600160a01b0316905081565b6000546001600160a01b0316331461143e5760405162461bcd60e51b815260040161081e906122aa565b600455565b6002546040516370a0823160e01b81523060048201526000916001600160a01b0316906370a0823190602401602060405180830381865afa15801561148c573d6000803e3d6000fd5b505050506040513d601f19601f820116820180604052508101906114b091906123b4565b905090565b6000546001600160a01b031633146114df5760405162461bcd60e51b815260040161081e906122aa565b6001600160a01b0381166115445760405162461bcd60e51b815260206004820152602660248201527f4f776e61626c653a206e6577206f776e657220697320746865207a65726f206160448201526564647265737360d01b606482015260840161081e565b600080546040516001600160a01b03808516939216917f8be0079c531659141344cd1fd0a4f28419497f9722a3daafe3b4186f6b6457e091a3600080546001600160a01b0319166001600160a01b0392909216919091179055565b6002600154036115f15760405162461bcd60e51b815260206004820152601f60248201527f5265656e7472616e637947756172643a207265656e7472616e742063616c6c00604482015260640161081e565b600260019081556001600160a01b0383166000908152600a602090815260408083203384529384019091529020826116675760405162461bcd60e51b8152602060048201526019602482015278416d6f756e74206d7573742062652061626f7665207a65726f60381b604482015260640161081e565b600582015460ff166116b05760405162461bcd60e51b8152602060048201526012602482015271506f6f6c206973206e6f742065786973747360701b604482015260640161081e565b826116bb8533610790565b10156117015760405162461bcd60e51b81526020600482015260156024820152744e6f7420656e6f756768204c502062616c616e636560581b604482015260640161081e565b60075460ff168015611723575042600854826004015461172191906123f0565b105b15611737576117328433611ce5565b611742565b61174084610628565b505b8154611758906001600160a01b03163385611c19565b8261176285610cce565b61176c9190612293565b43600090815260038401602052604090205561178784611c98565b43146117a85760028201805460018101825560009182526020909120439101555b80546117b5908490612293565b815560028201546001820155426005820155436000818152600384016020908152604091829020548251878152918201526001600160a01b0387169133917febff2602b3f468259e1e99f613fed6691f3a6526effe6ef3e768ba7ae7a36c4f910160405180910390a45050600180555050565b60026001540361187a5760405162461bcd60e51b815260206004820152601f60248201527f5265656e7472616e637947756172643a207265656e7472616e742063616c6c00604482015260640161081e565b60026001556001600160a01b0383166000908152600a60205260409020826118e05760405162461bcd60e51b8152602060048201526019602482015278416d6f756e74206d7573742062652061626f7665207a65726f60381b604482015260640161081e565b600581015460ff166119295760405162461bcd60e51b8152602060048201526012602482015271506f6f6c206973206e6f742065786973747360701b604482015260640161081e565b80546040516370a0823160e01b815233600482015284916001600160a01b0316906370a0823190602401602060405180830381865afa158015611970573d6000803e3d6000fd5b505050506040513d601f19601f8201168201806040525081019061199491906123b4565b10156119da5760405162461bcd60e51b81526020600482015260156024820152744e6f7420656e6f756768204c502062616c616e636560581b604482015260640161081e565b6001600160a01b038216156119f4576119f2826112f2565b505b6119fd84610628565b508054611a15906001600160a01b0316333086611db1565b60028101546000908103611a51574360008181526003840160209081526040822087905560028501805460018101825590835291200155611ab7565b83611a5b86610cce565b611a6591906123f0565b436000818152600385016020526040902091909155611a8386611c98565b14611aa35760028201805460018101825560009182526020909120439101555b6002820154611ab490600190612293565b90505b3360009081526001830160205260409020805415611ae1578054611adc9086906123f0565b611ae3565b845b81556001810182905542600482018190556005820155436000818152600385016020908152604091829020548251898152918201526001600160a01b0389169133917f4e2ca0515ed1aef1395f66b5303bb5d6f1bf9d61a353fa53f73f8ac9973fa9f6910160405180910390a450506001805550505050565b6000546001600160a01b03163314611b865760405162461bcd60e51b815260040161081e906122aa565b6000808211611b9c57611b97611443565b611b9e565b815b60025460405163a9059cbb60e01b8152336004820152602481018390529192506001600160a01b03169063a9059cbb906044016020604051808303816000875af1158015611bf0573d6000803e3d6000fd5b505050506040513d601f19601f82011682018060405250810190611c149190612527565b505050565b6040516001600160a01b038316602482015260448101829052611c1490849063a9059cbb60e01b906064015b60408051601f198184030181529190526020810180516001600160e01b03166001600160e01b031990931692909217909152611def565b6000606460095483611c8e9190612252565b6107ed9190612271565b6001600160a01b0381166000908152600a60205260408120600281018054611cc290600190612293565b81548110611cd257611cd2612408565b9060005260206000200154915050919050565b6001600160a01b038083166000908152600a602090815260408083209385168352600190930190529081206003810191909155426005820155611d2783611c98565b6002808301919091556001600160a01b0384166000908152600a60205260409020018054611d5790600190612293565b81548110611d6757611d67612408565b6000918252602082200154600183015560405143916001600160a01b0386169133917f1d79f78c1517c0c6b720422cf87c83fef8be7843aaae6eccaf376543d704c23691a4505050565b6040516001600160a01b0380851660248301528316604482015260648101829052611de99085906323b872dd60e01b90608401611c45565b50505050565b6000611e44826040518060400160405280602081526020017f5361666542455032303a206c6f772d6c6576656c2063616c6c206661696c6564815250856001600160a01b0316611ec19092919063ffffffff16565b805190915015611c145780806020019051810190611e629190612527565b611c145760405162461bcd60e51b815260206004820152602a60248201527f5361666542455032303a204245503230206f7065726174696f6e20646964206e6044820152691bdd081cdd58d8d9595960b21b606482015260840161081e565b6060611ed08484600085611eda565b90505b9392505050565b606082471015611f3b5760405162461bcd60e51b815260206004820152602660248201527f416464726573733a20696e73756666696369656e742062616c616e636520666f6044820152651c8818d85b1b60d21b606482015260840161081e565b843b611f895760405162461bcd60e51b815260206004820152601d60248201527f416464726573733a2063616c6c20746f206e6f6e2d636f6e7472616374000000604482015260640161081e565b600080866001600160a01b03168587604051611fa59190612549565b60006040518083038185875af1925050503d8060008114611fe2576040519150601f19603f3d011682016040523d82523d6000602084013e611fe7565b606091505b5091509150611ff7828286612002565b979650505050505050565b60608315612011575081611ed3565b8251156120215782518084602001fd5b8160405162461bcd60e51b815260040161081e9190612565565b828054828255906000526020600020908101928215612076579160200282015b8281111561207657825182559160200191906001019061205b565b50612082929150612086565b5090565b5b808211156120825760008155600101612087565b6001600160a01b03811681146120b057600080fd5b50565b6000602082840312156120c557600080fd5b8135611ed38161209b565b600080604083850312156120e357600080fd5b82356120ee8161209b565b915060208301356120fe8161209b565b809150509250929050565b6000806040838503121561211c57600080fd5b82356121278161209b565b946020939093013593505050565b60005b83811015612150578181015183820152602001612138565b83811115611de95750506000910152565b60008151808452612179816020860160208601612135565b601f01601f19169290920160200192915050565b6001600160a01b0387811682528616602082015260c0604082018190526000906121b990830187612161565b82810360608401526121cb8187612161565b6080840195909552505060a00152949350505050565b6000602082840312156121f357600080fd5b5035919050565b60008060006060848603121561220f57600080fd5b833561221a8161209b565b92506020840135915060408401356122318161209b565b809150509250925092565b634e487b7160e01b600052601160045260246000fd5b600081600019048311821515161561226c5761226c61223c565b500290565b60008261228e57634e487b7160e01b600052601260045260246000fd5b500490565b6000828210156122a5576122a561223c565b500390565b6020808252818101527f4f776e61626c653a2063616c6c6572206973206e6f7420746865206f776e6572604082015260600190565b6000602082840312156122f157600080fd5b8151611ed38161209b565b634e487b7160e01b600052604160045260246000fd5b60006020828403121561232457600080fd5b815167ffffffffffffffff8082111561233c57600080fd5b818401915084601f83011261235057600080fd5b815181811115612362576123626122fc565b604051601f8201601f19908116603f0116810190838211818310171561238a5761238a6122fc565b816040528281528760208487010111156123a357600080fd5b611ff7836020830160208801612135565b6000602082840312156123c657600080fd5b5051919050565b6000602082840312156123df57600080fd5b815160ff81168114611ed357600080fd5b600082198211156124035761240361223c565b500190565b634e487b7160e01b600052603260045260246000fd5b600181815b8085111561245957816000190482111561243f5761243f61223c565b8085161561244c57918102915b93841c9390800290612423565b509250929050565b600082612470575060016107ed565b8161247d575060006107ed565b8160018114612493576002811461249d576124b9565b60019150506107ed565b60ff8411156124ae576124ae61223c565b50506001821b6107ed565b5060208310610133831016604e8410600b84101617156124dc575081810a6107ed565b6124e6838361241e565b80600019048211156124fa576124fa61223c565b029392505050565b6000611ed38383612461565b6000600182016125205761252061223c565b5060010190565b60006020828403121561253957600080fd5b81518015158114611ed357600080fd5b6000825161255b818460208701612135565b9190910192915050565b602081526000611ed3602083018461216156fea26469706673582212202e77a5cef62aa71fa902d6a12741bc6ce37c8aec26fe4293b77340208909113864736f6c634300080d0033",
  "linkReferences": {},
  "deployedLinkReferences": {}
}