{
  "_format": "hh-sol-artifact-1",
  "contractName": "Token",
  "sourceName": "contracts/Token.sol",
  "abi": [
    {
      "inputs": [],
      "stateMutability": "nonpayable",
      "type": "constructor"
    },
    {
      "anonymous": false,
      "inputs": [
        {
          "indexed": true,
          "internalType": "address",
          "name": "owner",
          "type": "address"
        },
        {
          "indexed": true,
          "internalType": "address",
          "name": "spender",
          "type": "address"
        },
        {
          "indexed": false,
          "internalType": "uint256",
          "name": "value",
          "type": "uint256"
        }
      ],
      "name": "Approval",
      "type": "event"
    },
    {
      "anonymous": false,
      "inputs": [
        {
          "indexed": true,
          "internalType": "address",
          "name": "previousOwner",
          "type": "address"
        },
        {
          "indexed": true,
          "internalType": "address",
          "name": "newOwner",
          "type": "address"
        }
      ],
      "name": "OwnershipTransferred",
      "type": "event"
    },
    {
      "anonymous": false,
      "inputs": [
        {
          "indexed": true,
          "internalType": "address",
          "name": "from",
          "type": "address"
        },
        {
          "indexed": true,
          "internalType": "address",
          "name": "to",
          "type": "address"
        },
        {
          "indexed": false,
          "internalType": "uint256",
          "name": "value",
          "type": "uint256"
        }
      ],
      "name": "Transfer",
      "type": "event"
    },
    {
      "inputs": [],
      "name": "_maxTokens",
      "outputs": [
        {
          "internalType": "uint256",
          "name": "",
          "type": "uint256"
        }
      ],
      "stateMutability": "view",
      "type": "function"
    },
    {
      "inputs": [],
      "name": "_price",
      "outputs": [
        {
          "internalType": "uint256",
          "name": "",
          "type": "uint256"
        }
      ],
      "stateMutability": "view",
      "type": "function"
    },
    {
      "inputs": [
        {
          "internalType": "address",
          "name": "owner",
          "type": "address"
        },
        {
          "internalType": "address",
          "name": "spender",
          "type": "address"
        }
      ],
      "name": "allowance",
      "outputs": [
        {
          "internalType": "uint256",
          "name": "",
          "type": "uint256"
        }
      ],
      "stateMutability": "view",
      "type": "function"
    },
    {
      "inputs": [
        {
          "internalType": "address",
          "name": "spender",
          "type": "address"
        },
        {
          "internalType": "uint256",
          "name": "amount",
          "type": "uint256"
        }
      ],
      "name": "approve",
      "outputs": [
        {
          "internalType": "bool",
          "name": "",
          "type": "bool"
        }
      ],
      "stateMutability": "nonpayable",
      "type": "function"
    },
    {
      "inputs": [
        {
          "internalType": "address",
          "name": "account",
          "type": "address"
        }
      ],
      "name": "balanceOf",
      "outputs": [
        {
          "internalType": "uint256",
          "name": "",
          "type": "uint256"
        }
      ],
      "stateMutability": "view",
      "type": "function"
    },
    {
      "inputs": [
        {
          "internalType": "address",
          "name": "account",
          "type": "address"
        },
        {
          "internalType": "uint256",
          "name": "amount",
          "type": "uint256"
        }
      ],
      "name": "burn",
      "outputs": [],
      "stateMutability": "nonpayable",
      "type": "function"
    },
    {
      "inputs": [
        {
          "internalType": "uint256",
          "name": "amount",
          "type": "uint256"
        },
        {
          "internalType": "address",
          "name": "account",
          "type": "address"
        }
      ],
      "name": "buy",
      "outputs": [],
      "stateMutability": "payable",
      "type": "function"
    },
    {
      "inputs": [],
      "name": "decimals",
      "outputs": [
        {
          "internalType": "uint8",
          "name": "",
          "type": "uint8"
        }
      ],
      "stateMutability": "view",
      "type": "function"
    },
    {
      "inputs": [
        {
          "internalType": "address",
          "name": "spender",
          "type": "address"
        },
        {
          "internalType": "uint256",
          "name": "subtractedValue",
          "type": "uint256"
        }
      ],
      "name": "decreaseAllowance",
      "outputs": [
        {
          "internalType": "bool",
          "name": "",
          "type": "bool"
        }
      ],
      "stateMutability": "nonpayable",
      "type": "function"
    },
    {
      "inputs": [
        {
          "internalType": "address",
          "name": "spender",
          "type": "address"
        },
        {
          "internalType": "uint256",
          "name": "addedValue",
          "type": "uint256"
        }
      ],
      "name": "increaseAllowance",
      "outputs": [
        {
          "internalType": "bool",
          "name": "",
          "type": "bool"
        }
      ],
      "stateMutability": "nonpayable",
      "type": "function"
    },
    {
      "inputs": [
        {
          "internalType": "uint256",
          "name": "amount",
          "type": "uint256"
        }
      ],
      "name": "mint",
      "outputs": [],
      "stateMutability": "nonpayable",
      "type": "function"
    },
    {
      "inputs": [],
      "name": "name",
      "outputs": [
        {
          "internalType": "string",
          "name": "",
          "type": "string"
        }
      ],
      "stateMutability": "view",
      "type": "function"
    },
    {
      "inputs": [],
      "name": "owner",
      "outputs": [
        {
          "internalType": "address",
          "name": "",
          "type": "address"
        }
      ],
      "stateMutability": "view",
      "type": "function"
    },
    {
      "inputs": [],
      "name": "renounceOwnership",
      "outputs": [],
      "stateMutability": "nonpayable",
      "type": "function"
    },
    {
      "inputs": [],
      "name": "symbol",
      "outputs": [
        {
          "internalType": "string",
          "name": "",
          "type": "string"
        }
      ],
      "stateMutability": "view",
      "type": "function"
    },
    {
      "inputs": [],
      "name": "totalSupply",
      "outputs": [
        {
          "internalType": "uint256",
          "name": "",
          "type": "uint256"
        }
      ],
      "stateMutability": "view",
      "type": "function"
    },
    {
      "inputs": [],
      "name": "totalTokens",
      "outputs": [
        {
          "internalType": "uint256",
          "name": "",
          "type": "uint256"
        }
      ],
      "stateMutability": "view",
      "type": "function"
    },
    {
      "inputs": [
        {
          "internalType": "address",
          "name": "to",
          "type": "address"
        },
        {
          "internalType": "uint256",
          "name": "amount",
          "type": "uint256"
        }
      ],
      "name": "transfer",
      "outputs": [
        {
          "internalType": "bool",
          "name": "",
          "type": "bool"
        }
      ],
      "stateMutability": "nonpayable",
      "type": "function"
    },
    {
      "inputs": [
        {
          "internalType": "address",
          "name": "from",
          "type": "address"
        },
        {
          "internalType": "address",
          "name": "to",
          "type": "address"
        },
        {
          "internalType": "uint256",
          "name": "amount",
          "type": "uint256"
        }
      ],
      "name": "transferFrom",
      "outputs": [
        {
          "internalType": "bool",
          "name": "",
          "type": "bool"
        }
      ],
      "stateMutability": "nonpayable",
      "type": "function"
    },
    {
      "inputs": [
        {
          "internalType": "address",
          "name": "newOwner",
          "type": "address"
        }
      ],
      "name": "transferOwnership",
      "outputs": [],
      "stateMutability": "nonpayable",
      "type": "function"
    }
  ],
  "bytecode": "0x60806040523480156200001157600080fd5b50600b80546200002190620003d2565b80601f01602080910402602001604051908101604052809291908181526020018280546200004f90620003d2565b8015620000a05780601f106200007457610100808354040283529160200191620000a0565b820191906000526020600020905b8154815290600101906020018083116200008257829003601f168201915b5050505050600a8054620000b490620003d2565b80601f0160208091040260200160405190810160405280929190818152602001828054620000e290620003d2565b8015620001335780601f10620001075761010080835404028352916020019162000133565b820191906000526020600020905b8154815290600101906020018083116200011557829003601f168201915b505084516200014d9350600392506020860191506200032c565b508051620001639060049060208401906200032c565b505050620001806200017a6200021060201b60201c565b62000214565b604080518082019091526005808252642a37b5b2b760d91b6020909201918252620001ae91600b916200032c565b506040805180820190915260048082526315195cdd60e21b6020909201918252620001dc91600a916200032c565b5068056bc75e2d631000006006819055620001f990339062000266565b600060075567016345785d8a000060085562000435565b3390565b600580546001600160a01b038381166001600160a01b0319831681179093556040519116919082907f8be0079c531659141344cd1fd0a4f28419497f9722a3daafe3b4186f6b6457e090600090a35050565b6001600160a01b038216620002c15760405162461bcd60e51b815260206004820152601f60248201527f45524332303a206d696e7420746f20746865207a65726f206164647265737300604482015260640160405180910390fd5b8060026000828254620002d591906200040e565b90915550506001600160a01b038216600081815260208181526040808320805486019055518481527fddf252ad1be2c89b69c2b068fc378daa952ba7f163c4a11628f55a4df523b3ef910160405180910390a35050565b8280546200033a90620003d2565b90600052602060002090601f0160209004810192826200035e5760008555620003a9565b82601f106200037957805160ff1916838001178555620003a9565b82800160010185558215620003a9579182015b82811115620003a95782518255916020019190600101906200038c565b50620003b7929150620003bb565b5090565b5b80821115620003b75760008155600101620003bc565b600181811c90821680620003e757607f821691505b6020821081036200040857634e487b7160e01b600052602260045260246000fd5b50919050565b600082198211156200043057634e487b7160e01b600052601160045260246000fd5b500190565b610f7580620004456000396000f3fe60806040526004361061011f5760003560e01c80637deb6025116100a0578063a0712d6811610064578063a0712d68146102f9578063a457c2d714610319578063a9059cbb14610339578063dd62ed3e14610359578063f2fde38b1461037957600080fd5b80637deb6025146102735780637e1c0c09146102865780638da5cb5b1461029c57806395d89b41146102c45780639dc29fac146102d957600080fd5b8063313ce567116100e7578063313ce567146101d457806339509351146101f0578063487c70fc1461021057806370a0823114610226578063715018a61461025c57600080fd5b806306fdde0314610124578063095ea7b31461014f57806318160ddd1461017f578063235b6ea11461019e57806323b872dd146101b4575b600080fd5b34801561013057600080fd5b50610139610399565b6040516101469190610d39565b60405180910390f35b34801561015b57600080fd5b5061016f61016a366004610daa565b61042b565b6040519015158152602001610146565b34801561018b57600080fd5b506002545b604051908152602001610146565b3480156101aa57600080fd5b5061019060085481565b3480156101c057600080fd5b5061016f6101cf366004610dd4565b610443565b3480156101e057600080fd5b5060405160128152602001610146565b3480156101fc57600080fd5b5061016f61020b366004610daa565b610467565b34801561021c57600080fd5b5061019060065481565b34801561023257600080fd5b50610190610241366004610e10565b6001600160a01b031660009081526020819052604090205490565b34801561026857600080fd5b50610271610489565b005b610271610281366004610e32565b61049d565b34801561029257600080fd5b5061019060075481565b3480156102a857600080fd5b506005546040516001600160a01b039091168152602001610146565b3480156102d057600080fd5b506101396105d4565b3480156102e557600080fd5b506102716102f4366004610daa565b6105e3565b34801561030557600080fd5b50610271610314366004610e5e565b610610565b34801561032557600080fd5b5061016f610334366004610daa565b610634565b34801561034557600080fd5b5061016f610354366004610daa565b6106af565b34801561036557600080fd5b50610190610374366004610e77565b6106bd565b34801561038557600080fd5b50610271610394366004610e10565b6106e8565b6060600380546103a890610ea1565b80601f01602080910402602001604051908101604052809291908181526020018280546103d490610ea1565b80156104215780601f106103f657610100808354040283529160200191610421565b820191906000526020600020905b81548152906001019060200180831161040457829003601f168201915b5050505050905090565b600033610439818585610761565b5060019392505050565b600033610451858285610886565b61045c858585610900565b506001949350505050565b60003361043981858561047a83836106bd565b6104849190610ef1565b610761565b610491610aa4565b61049b6000610afe565b565b346001600160a01b0382166104f95760405162461bcd60e51b815260206004820152601c60248201527f526563656976657220697320746865207a65726f20616464726573730000000060448201526064015b60405180910390fd5b6006548161050660025490565b6105109190610ef1565b1061055d5760405162461bcd60e51b815260206004820152601960248201527f457863656564656420616d6f756e74206f6620746f6b656e730000000000000060448201526064016104f0565b60085461056a9084610f09565b8110156105ae5760405162461bcd60e51b815260206004820152601260248201527145786365656420424e422062616c616e636560701b60448201526064016104f0565b6105b88284610b50565b82600760008282546105ca9190610ef1565b9091555050505050565b6060600480546103a890610ea1565b6105eb610aa4565b6105f58282610c0f565b80600760008282546106079190610f28565b90915550505050565b61061a3382610b50565b806007600082825461062c9190610ef1565b909155505050565b6000338161064282866106bd565b9050838110156106a25760405162461bcd60e51b815260206004820152602560248201527f45524332303a2064656372656173656420616c6c6f77616e63652062656c6f77604482015264207a65726f60d81b60648201526084016104f0565b61045c8286868403610761565b600033610439818585610900565b6001600160a01b03918216600090815260016020908152604080832093909416825291909152205490565b6106f0610aa4565b6001600160a01b0381166107555760405162461bcd60e51b815260206004820152602660248201527f4f776e61626c653a206e6577206f776e657220697320746865207a65726f206160448201526564647265737360d01b60648201526084016104f0565b61075e81610afe565b50565b6001600160a01b0383166107c35760405162461bcd60e51b8152602060048201526024808201527f45524332303a20617070726f76652066726f6d20746865207a65726f206164646044820152637265737360e01b60648201526084016104f0565b6001600160a01b0382166108245760405162461bcd60e51b815260206004820152602260248201527f45524332303a20617070726f766520746f20746865207a65726f206164647265604482015261737360f01b60648201526084016104f0565b6001600160a01b0383811660008181526001602090815260408083209487168084529482529182902085905590518481527f8c5be1e5ebec7d5bd14f71427d1e84f3dd0314c0f7b2291e5b200ac8c7c3b92591015b60405180910390a3505050565b600061089284846106bd565b905060001981146108fa57818110156108ed5760405162461bcd60e51b815260206004820152601d60248201527f45524332303a20696e73756666696369656e7420616c6c6f77616e636500000060448201526064016104f0565b6108fa8484848403610761565b50505050565b6001600160a01b0383166109645760405162461bcd60e51b815260206004820152602560248201527f45524332303a207472616e736665722066726f6d20746865207a65726f206164604482015264647265737360d81b60648201526084016104f0565b6001600160a01b0382166109c65760405162461bcd60e51b815260206004820152602360248201527f45524332303a207472616e7366657220746f20746865207a65726f206164647260448201526265737360e81b60648201526084016104f0565b6001600160a01b03831660009081526020819052604090205481811015610a3e5760405162461bcd60e51b815260206004820152602660248201527f45524332303a207472616e7366657220616d6f756e7420657863656564732062604482015265616c616e636560d01b60648201526084016104f0565b6001600160a01b03848116600081815260208181526040808320878703905593871680835291849020805487019055925185815290927fddf252ad1be2c89b69c2b068fc378daa952ba7f163c4a11628f55a4df523b3ef910160405180910390a36108fa565b6005546001600160a01b0316331461049b5760405162461bcd60e51b815260206004820181905260248201527f4f776e61626c653a2063616c6c6572206973206e6f7420746865206f776e657260448201526064016104f0565b600580546001600160a01b038381166001600160a01b0319831681179093556040519116919082907f8be0079c531659141344cd1fd0a4f28419497f9722a3daafe3b4186f6b6457e090600090a35050565b6001600160a01b038216610ba65760405162461bcd60e51b815260206004820152601f60248201527f45524332303a206d696e7420746f20746865207a65726f20616464726573730060448201526064016104f0565b8060026000828254610bb89190610ef1565b90915550506001600160a01b038216600081815260208181526040808320805486019055518481527fddf252ad1be2c89b69c2b068fc378daa952ba7f163c4a11628f55a4df523b3ef910160405180910390a35050565b6001600160a01b038216610c6f5760405162461bcd60e51b815260206004820152602160248201527f45524332303a206275726e2066726f6d20746865207a65726f206164647265736044820152607360f81b60648201526084016104f0565b6001600160a01b03821660009081526020819052604090205481811015610ce35760405162461bcd60e51b815260206004820152602260248201527f45524332303a206275726e20616d6f756e7420657863656564732062616c616e604482015261636560f01b60648201526084016104f0565b6001600160a01b0383166000818152602081815260408083208686039055600280548790039055518581529192917fddf252ad1be2c89b69c2b068fc378daa952ba7f163c4a11628f55a4df523b3ef9101610879565b600060208083528351808285015260005b81811015610d6657858101830151858201604001528201610d4a565b81811115610d78576000604083870101525b50601f01601f1916929092016040019392505050565b80356001600160a01b0381168114610da557600080fd5b919050565b60008060408385031215610dbd57600080fd5b610dc683610d8e565b946020939093013593505050565b600080600060608486031215610de957600080fd5b610df284610d8e565b9250610e0060208501610d8e565b9150604084013590509250925092565b600060208284031215610e2257600080fd5b610e2b82610d8e565b9392505050565b60008060408385031215610e4557600080fd5b82359150610e5560208401610d8e565b90509250929050565b600060208284031215610e7057600080fd5b5035919050565b60008060408385031215610e8a57600080fd5b610e9383610d8e565b9150610e5560208401610d8e565b600181811c90821680610eb557607f821691505b602082108103610ed557634e487b7160e01b600052602260045260246000fd5b50919050565b634e487b7160e01b600052601160045260246000fd5b60008219821115610f0457610f04610edb565b500190565b6000816000190483118215151615610f2357610f23610edb565b500290565b600082821015610f3a57610f3a610edb565b50039056fea2646970667358221220a059612ffd012d621fd1a329f2688a556a47e2e311d04d9d51518db010e9a40b64736f6c634300080d0033",
  "linkReferences": {},
  "deployedLinkReferences": {}
}