{
  "_format": "hh-sol-artifact-1",
  "contractName": "NarfexToken",
  "sourceName": "contracts/NarfexToken.sol",
  "abi": [
    {
      "inputs": [],
      "stateMutability": "nonpayable",
      "type": "constructor"
    },
    {
      "anonymous": false,
      "inputs": [
        {
          "indexed": true,
          "internalType": "address",
          "name": "owner",
          "type": "address"
        },
        {
          "indexed": true,
          "internalType": "address",
          "name": "spender",
          "type": "address"
        },
        {
          "indexed": false,
          "internalType": "uint256",
          "name": "value",
          "type": "uint256"
        }
      ],
      "name": "Approval",
      "type": "event"
    },
    {
      "anonymous": false,
      "inputs": [
        {
          "indexed": true,
          "internalType": "address",
          "name": "operator",
          "type": "address"
        },
        {
          "indexed": false,
          "internalType": "uint256",
          "name": "previousRate",
          "type": "uint256"
        },
        {
          "indexed": false,
          "internalType": "uint256",
          "name": "newRate",
          "type": "uint256"
        }
      ],
      "name": "BurnRateUpdated",
      "type": "event"
    },
    {
      "anonymous": false,
      "inputs": [
        {
          "indexed": true,
          "internalType": "address",
          "name": "delegator",
          "type": "address"
        },
        {
          "indexed": true,
          "internalType": "address",
          "name": "fromDelegate",
          "type": "address"
        },
        {
          "indexed": true,
          "internalType": "address",
          "name": "toDelegate",
          "type": "address"
        }
      ],
      "name": "DelegateChanged",
      "type": "event"
    },
    {
      "anonymous": false,
      "inputs": [
        {
          "indexed": true,
          "internalType": "address",
          "name": "delegate",
          "type": "address"
        },
        {
          "indexed": false,
          "internalType": "uint256",
          "name": "previousBalance",
          "type": "uint256"
        },
        {
          "indexed": false,
          "internalType": "uint256",
          "name": "newBalance",
          "type": "uint256"
        }
      ],
      "name": "DelegateVotesChanged",
      "type": "event"
    },
    {
      "anonymous": false,
      "inputs": [
        {
          "indexed": true,
          "internalType": "address",
          "name": "exludedAdresse",
          "type": "address"
        },
        {
          "indexed": true,
          "internalType": "bool",
          "name": "excludedStatut",
          "type": "bool"
        }
      ],
      "name": "ExcludedFromAntiWhale",
      "type": "event"
    },
    {
      "anonymous": false,
      "inputs": [
        {
          "indexed": true,
          "internalType": "address",
          "name": "exludedAdresse",
          "type": "address"
        },
        {
          "indexed": true,
          "internalType": "bool",
          "name": "excludedStatut",
          "type": "bool"
        }
      ],
      "name": "ExcludedFromTrsfTax",
      "type": "event"
    },
    {
      "anonymous": false,
      "inputs": [
        {
          "indexed": true,
          "internalType": "address",
          "name": "operator",
          "type": "address"
        },
        {
          "indexed": false,
          "internalType": "uint256",
          "name": "previousRate",
          "type": "uint256"
        },
        {
          "indexed": false,
          "internalType": "uint256",
          "name": "newRate",
          "type": "uint256"
        }
      ],
      "name": "MaxTransferAmountRateUpdated",
      "type": "event"
    },
    {
      "anonymous": false,
      "inputs": [
        {
          "indexed": true,
          "internalType": "address",
          "name": "operator",
          "type": "address"
        },
        {
          "indexed": true,
          "internalType": "address",
          "name": "router",
          "type": "address"
        },
        {
          "indexed": true,
          "internalType": "address",
          "name": "pair",
          "type": "address"
        }
      ],
      "name": "NarfexSwapRouterUpdated",
      "type": "event"
    },
    {
      "anonymous": false,
      "inputs": [
        {
          "indexed": true,
          "internalType": "address",
          "name": "previousOperator",
          "type": "address"
        },
        {
          "indexed": true,
          "internalType": "address",
          "name": "newOperator",
          "type": "address"
        }
      ],
      "name": "OperatorTransferred",
      "type": "event"
    },
    {
      "anonymous": false,
      "inputs": [
        {
          "indexed": true,
          "internalType": "address",
          "name": "previousOwner",
          "type": "address"
        },
        {
          "indexed": true,
          "internalType": "address",
          "name": "newOwner",
          "type": "address"
        }
      ],
      "name": "OwnerTransferred",
      "type": "event"
    },
    {
      "anonymous": false,
      "inputs": [
        {
          "indexed": true,
          "internalType": "address",
          "name": "previousOwner",
          "type": "address"
        },
        {
          "indexed": true,
          "internalType": "address",
          "name": "newOwner",
          "type": "address"
        }
      ],
      "name": "OwnershipTransferred",
      "type": "event"
    },
    {
      "anonymous": false,
      "inputs": [
        {
          "indexed": true,
          "internalType": "address",
          "name": "from",
          "type": "address"
        },
        {
          "indexed": true,
          "internalType": "address",
          "name": "to",
          "type": "address"
        },
        {
          "indexed": false,
          "internalType": "uint256",
          "name": "value",
          "type": "uint256"
        }
      ],
      "name": "Transfer",
      "type": "event"
    },
    {
      "inputs": [],
      "name": "BURN_ADDRESS",
      "outputs": [
        {
          "internalType": "address",
          "name": "",
          "type": "address"
        }
      ],
      "stateMutability": "view",
      "type": "function"
    },
    {
      "inputs": [],
      "name": "DELEGATION_TYPEHASH",
      "outputs": [
        {
          "internalType": "bytes32",
          "name": "",
          "type": "bytes32"
        }
      ],
      "stateMutability": "view",
      "type": "function"
    },
    {
      "inputs": [],
      "name": "DOMAIN_TYPEHASH",
      "outputs": [
        {
          "internalType": "bytes32",
          "name": "",
          "type": "bytes32"
        }
      ],
      "stateMutability": "view",
      "type": "function"
    },
    {
      "inputs": [
        {
          "internalType": "address",
          "name": "owner",
          "type": "address"
        },
        {
          "internalType": "address",
          "name": "spender",
          "type": "address"
        }
      ],
      "name": "allowance",
      "outputs": [
        {
          "internalType": "uint256",
          "name": "",
          "type": "uint256"
        }
      ],
      "stateMutability": "view",
      "type": "function"
    },
    {
      "inputs": [
        {
          "internalType": "address",
          "name": "spender",
          "type": "address"
        },
        {
          "internalType": "uint256",
          "name": "amount",
          "type": "uint256"
        }
      ],
      "name": "approve",
      "outputs": [
        {
          "internalType": "bool",
          "name": "",
          "type": "bool"
        }
      ],
      "stateMutability": "nonpayable",
      "type": "function"
    },
    {
      "inputs": [
        {
          "internalType": "address",
          "name": "account",
          "type": "address"
        }
      ],
      "name": "balanceOf",
      "outputs": [
        {
          "internalType": "uint256",
          "name": "",
          "type": "uint256"
        }
      ],
      "stateMutability": "view",
      "type": "function"
    },
    {
      "inputs": [],
      "name": "burnRateTax",
      "outputs": [
        {
          "internalType": "uint16",
          "name": "",
          "type": "uint16"
        }
      ],
      "stateMutability": "view",
      "type": "function"
    },
    {
      "inputs": [
        {
          "internalType": "address",
          "name": "",
          "type": "address"
        },
        {
          "internalType": "uint32",
          "name": "",
          "type": "uint32"
        }
      ],
      "name": "checkpoints",
      "outputs": [
        {
          "internalType": "uint32",
          "name": "fromBlock",
          "type": "uint32"
        },
        {
          "internalType": "uint256",
          "name": "votes",
          "type": "uint256"
        }
      ],
      "stateMutability": "view",
      "type": "function"
    },
    {
      "inputs": [],
      "name": "decimals",
      "outputs": [
        {
          "internalType": "uint8",
          "name": "",
          "type": "uint8"
        }
      ],
      "stateMutability": "view",
      "type": "function"
    },
    {
      "inputs": [
        {
          "internalType": "address",
          "name": "spender",
          "type": "address"
        },
        {
          "internalType": "uint256",
          "name": "subtractedValue",
          "type": "uint256"
        }
      ],
      "name": "decreaseAllowance",
      "outputs": [
        {
          "internalType": "bool",
          "name": "",
          "type": "bool"
        }
      ],
      "stateMutability": "nonpayable",
      "type": "function"
    },
    {
      "inputs": [
        {
          "internalType": "address",
          "name": "delegatee",
          "type": "address"
        }
      ],
      "name": "delegate",
      "outputs": [],
      "stateMutability": "nonpayable",
      "type": "function"
    },
    {
      "inputs": [
        {
          "internalType": "address",
          "name": "delegatee",
          "type": "address"
        },
        {
          "internalType": "uint256",
          "name": "nonce",
          "type": "uint256"
        },
        {
          "internalType": "uint256",
          "name": "expiry",
          "type": "uint256"
        },
        {
          "internalType": "uint8",
          "name": "v",
          "type": "uint8"
        },
        {
          "internalType": "bytes32",
          "name": "r",
          "type": "bytes32"
        },
        {
          "internalType": "bytes32",
          "name": "s",
          "type": "bytes32"
        }
      ],
      "name": "delegateBySig",
      "outputs": [],
      "stateMutability": "nonpayable",
      "type": "function"
    },
    {
      "inputs": [
        {
          "internalType": "address",
          "name": "delegator",
          "type": "address"
        }
      ],
      "name": "delegates",
      "outputs": [
        {
          "internalType": "address",
          "name": "",
          "type": "address"
        }
      ],
      "stateMutability": "view",
      "type": "function"
    },
    {
      "inputs": [
        {
          "internalType": "address",
          "name": "account",
          "type": "address"
        }
      ],
      "name": "getCurrentVotes",
      "outputs": [
        {
          "internalType": "uint256",
          "name": "",
          "type": "uint256"
        }
      ],
      "stateMutability": "view",
      "type": "function"
    },
    {
      "inputs": [],
      "name": "getOwner",
      "outputs": [
        {
          "internalType": "address",
          "name": "",
          "type": "address"
        }
      ],
      "stateMutability": "view",
      "type": "function"
    },
    {
      "inputs": [
        {
          "internalType": "address",
          "name": "account",
          "type": "address"
        },
        {
          "internalType": "uint256",
          "name": "blockNumber",
          "type": "uint256"
        }
      ],
      "name": "getPriorVotes",
      "outputs": [
        {
          "internalType": "uint256",
          "name": "",
          "type": "uint256"
        }
      ],
      "stateMutability": "view",
      "type": "function"
    },
    {
      "inputs": [
        {
          "internalType": "address",
          "name": "_token",
          "type": "address"
        },
        {
          "internalType": "uint256",
          "name": "_amount",
          "type": "uint256"
        }
      ],
      "name": "inCaseTokensGetStuck",
      "outputs": [],
      "stateMutability": "nonpayable",
      "type": "function"
    },
    {
      "inputs": [
        {
          "internalType": "address",
          "name": "spender",
          "type": "address"
        },
        {
          "internalType": "uint256",
          "name": "addedValue",
          "type": "uint256"
        }
      ],
      "name": "increaseAllowance",
      "outputs": [
        {
          "internalType": "bool",
          "name": "",
          "type": "bool"
        }
      ],
      "stateMutability": "nonpayable",
      "type": "function"
    },
    {
      "inputs": [
        {
          "internalType": "address",
          "name": "_account",
          "type": "address"
        }
      ],
      "name": "isExcludedFromAntiWhale",
      "outputs": [
        {
          "internalType": "bool",
          "name": "",
          "type": "bool"
        }
      ],
      "stateMutability": "view",
      "type": "function"
    },
    {
      "inputs": [
        {
          "internalType": "address",
          "name": "_account",
          "type": "address"
        }
      ],
      "name": "isExcludedFromTrsfTax",
      "outputs": [
        {
          "internalType": "bool",
          "name": "",
          "type": "bool"
        }
      ],
      "stateMutability": "view",
      "type": "function"
    },
    {
      "inputs": [],
      "name": "maxTransferAmount",
      "outputs": [
        {
          "internalType": "uint256",
          "name": "",
          "type": "uint256"
        }
      ],
      "stateMutability": "view",
      "type": "function"
    },
    {
      "inputs": [],
      "name": "maxTransferAmountRate",
      "outputs": [
        {
          "internalType": "uint16",
          "name": "",
          "type": "uint16"
        }
      ],
      "stateMutability": "view",
      "type": "function"
    },
    {
      "inputs": [
        {
          "internalType": "address",
          "name": "_to",
          "type": "address"
        },
        {
          "internalType": "uint256",
          "name": "_amount",
          "type": "uint256"
        }
      ],
      "name": "mint",
      "outputs": [],
      "stateMutability": "nonpayable",
      "type": "function"
    },
    {
      "inputs": [
        {
          "internalType": "uint256",
          "name": "amount",
          "type": "uint256"
        }
      ],
      "name": "mint",
      "outputs": [
        {
          "internalType": "bool",
          "name": "",
          "type": "bool"
        }
      ],
      "stateMutability": "nonpayable",
      "type": "function"
    },
    {
      "inputs": [],
      "name": "name",
      "outputs": [
        {
          "internalType": "string",
          "name": "",
          "type": "string"
        }
      ],
      "stateMutability": "view",
      "type": "function"
    },
    {
      "inputs": [
        {
          "internalType": "address",
          "name": "",
          "type": "address"
        }
      ],
      "name": "nonces",
      "outputs": [
        {
          "internalType": "uint256",
          "name": "",
          "type": "uint256"
        }
      ],
      "stateMutability": "view",
      "type": "function"
    },
    {
      "inputs": [
        {
          "internalType": "address",
          "name": "",
          "type": "address"
        }
      ],
      "name": "numCheckpoints",
      "outputs": [
        {
          "internalType": "uint32",
          "name": "",
          "type": "uint32"
        }
      ],
      "stateMutability": "view",
      "type": "function"
    },
    {
      "inputs": [],
      "name": "operator",
      "outputs": [
        {
          "internalType": "address",
          "name": "",
          "type": "address"
        }
      ],
      "stateMutability": "view",
      "type": "function"
    },
    {
      "inputs": [],
      "name": "owner",
      "outputs": [
        {
          "internalType": "address",
          "name": "",
          "type": "address"
        }
      ],
      "stateMutability": "view",
      "type": "function"
    },
    {
      "inputs": [],
      "name": "renounceOwnership",
      "outputs": [],
      "stateMutability": "nonpayable",
      "type": "function"
    },
    {
      "inputs": [
        {
          "internalType": "address",
          "name": "_account",
          "type": "address"
        },
        {
          "internalType": "bool",
          "name": "_excluded",
          "type": "bool"
        }
      ],
      "name": "setExcludedFromAntiWhale",
      "outputs": [],
      "stateMutability": "nonpayable",
      "type": "function"
    },
    {
      "inputs": [
        {
          "internalType": "address",
          "name": "_account",
          "type": "address"
        },
        {
          "internalType": "bool",
          "name": "_excluded",
          "type": "bool"
        }
      ],
      "name": "setExcludedFromTrsfTax",
      "outputs": [],
      "stateMutability": "nonpayable",
      "type": "function"
    },
    {
      "inputs": [],
      "name": "symbol",
      "outputs": [
        {
          "internalType": "string",
          "name": "",
          "type": "string"
        }
      ],
      "stateMutability": "view",
      "type": "function"
    },
    {
      "inputs": [],
      "name": "totalSupply",
      "outputs": [
        {
          "internalType": "uint256",
          "name": "",
          "type": "uint256"
        }
      ],
      "stateMutability": "view",
      "type": "function"
    },
    {
      "inputs": [
        {
          "internalType": "address",
          "name": "recipient",
          "type": "address"
        },
        {
          "internalType": "uint256",
          "name": "amount",
          "type": "uint256"
        }
      ],
      "name": "transfer",
      "outputs": [
        {
          "internalType": "bool",
          "name": "",
          "type": "bool"
        }
      ],
      "stateMutability": "nonpayable",
      "type": "function"
    },
    {
      "inputs": [
        {
          "internalType": "address",
          "name": "sender",
          "type": "address"
        },
        {
          "internalType": "address",
          "name": "recipient",
          "type": "address"
        },
        {
          "internalType": "uint256",
          "name": "amount",
          "type": "uint256"
        }
      ],
      "name": "transferFrom",
      "outputs": [
        {
          "internalType": "bool",
          "name": "",
          "type": "bool"
        }
      ],
      "stateMutability": "nonpayable",
      "type": "function"
    },
    {
      "inputs": [
        {
          "internalType": "address",
          "name": "newOperator",
          "type": "address"
        }
      ],
      "name": "transferOperator",
      "outputs": [],
      "stateMutability": "nonpayable",
      "type": "function"
    },
    {
      "inputs": [
        {
          "internalType": "address",
          "name": "newOwner",
          "type": "address"
        }
      ],
      "name": "transferOwnership",
      "outputs": [],
      "stateMutability": "nonpayable",
      "type": "function"
    },
    {
      "inputs": [
        {
          "internalType": "uint16",
          "name": "_burnRateTax",
          "type": "uint16"
        }
      ],
      "name": "updateBurnRate",
      "outputs": [],
      "stateMutability": "nonpayable",
      "type": "function"
    },
    {
      "inputs": [
        {
          "internalType": "uint16",
          "name": "_maxTransferAmountRate",
          "type": "uint16"
        }
      ],
      "name": "updateMaxTransferAmountRate",
      "outputs": [],
      "stateMutability": "nonpayable",
      "type": "function"
    }
  ],
  "bytecode": "0x60806040526006805464ffffffff00191663640064001790553480156200002557600080fd5b506040518060400160405280600c81526020016b2730b93332bc102a37b5b2b760a11b8152506040518060400160405280600681526020016509cc2e4cccaf60d31b81525060006200007c620001e060201b60201c565b600080546001600160a01b0319166001600160a01b0383169081178255604051929350917f8be0079c531659141344cd1fd0a4f28419497f9722a3daafe3b4186f6b6457e0908290a3508151620000db906004906020850190620001e4565b508051620000f1906005906020840190620001e4565b50506006805460ff1916601217905550620001093390565b600980546001600160a01b0319166001600160a01b039290921691821790556040516000907f74da04524d50c64947f5dd5381ef1a4dca5cba8ed1d816243f9e48aa0b5617ed908290a3336000908152600760205260408082208054600160ff1991821681179092557f6d5257204ebe7d88fd91ae87941cb2dd9d8062b64ae5a2bd2d28ec40b9fbf6df8054821683179055308452918320805483168217905561dead9092527fb0c2646e02af70b79e3fe9277b98373379f54150e4e26b2b5650139f7a75a65d80549091169091179055620002c6565b3390565b828054620001f2906200028a565b90600052602060002090601f01602090048101928262000216576000855562000261565b82601f106200023157805160ff191683800117855562000261565b8280016001018555821562000261579182015b828111156200026157825182559160200191906001019062000244565b506200026f92915062000273565b5090565b5b808211156200026f576000815560010162000274565b600181811c908216806200029f57607f821691505b602082108103620002c057634e487b7160e01b600052602260045260246000fd5b50919050565b61235380620002d66000396000f3fe608060405234801561001057600080fd5b50600436106102485760003560e01c80637ecebe001161013b578063c6d758cb116100b8578063f1127ed81161007c578063f1127ed8146105c0578063f20bf8d514610617578063f2fde38b14610643578063f607f2b414610656578063fccc28131461066957600080fd5b8063c6d758cb14610527578063c7f59a671461053a578063dd62ed3e1461054d578063e7a324dc14610586578063ef45f467146105ad57600080fd5b8063a457c2d7116100ff578063a457c2d7146104d3578063a9059cbb146104e6578063a9e75723146104f9578063b4b5ea5714610501578063c3cda5201461051457600080fd5b80637ecebe0014610487578063893d20e8146104a75780638da5cb5b146104a757806395d89b41146104b8578063a0712d68146104c057600080fd5b80633ff8bf2e116101c95780636a141e2c1161018d5780636a141e2c146103f55780636fcfff451461040857806370a0823114610443578063715018a61461046c578063782d6fe11461047457600080fd5b80633ff8bf2e1461036957806340c10f191461037e578063570ca73514610391578063587cde1e146103b65780635c19a95c146103e257600080fd5b806323b872dd1161021057806323b872dd146102ed578063269f534c1461030057806329605e771461032c578063313ce56714610341578063395093511461035657600080fd5b806306fdde031461024d578063095ea7b31461026b5780630aa80f4b1461028e57806318160ddd146102b457806320606b70146102c6575b600080fd5b610255610672565b6040516102629190611ec9565b60405180910390f35b61027e610279366004611f35565b610704565b6040519015158152602001610262565b6006546102a190610100900461ffff1681565b60405161ffff9091168152602001610262565b6003545b604051908152602001610262565b6102b87f8cad95687ba82c2ce50e74f7b754645e5117c3a5bec8151c0726d5857980a86681565b61027e6102fb366004611f5f565b61071b565b61027e61030e366004611f9b565b6001600160a01b031660009081526007602052604090205460ff1690565b61033f61033a366004611f9b565b61076d565b005b60065460405160ff9091168152602001610262565b61027e610364366004611f35565b610878565b6006546102a1906301000000900461ffff1681565b61033f61038c366004611f35565b6108af565b6009546001600160a01b03165b6040516001600160a01b039091168152602001610262565b61039e6103c4366004611f9b565b6001600160a01b039081166000908152600b60205260409020541690565b61033f6103f0366004611f9b565b61090c565b61033f610403366004611fb6565b610919565b61042e610416366004611f9b565b600d6020526000908152604090205463ffffffff1681565b60405163ffffffff9091168152602001610262565b6102b8610451366004611f9b565b6001600160a01b031660009081526001602052604090205490565b61033f610a52565b6102b8610482366004611f35565b610ac6565b6102b8610495366004611f9b565b600e6020526000908152604090205481565b6000546001600160a01b031661039e565b610255610d35565b61027e6104ce366004611fda565b610d44565b61027e6104e1366004611f35565b610d82565b61027e6104f4366004611f35565b610db9565b6102b8610dc6565b6102b861050f366004611f9b565b610df9565b61033f610522366004611ff3565b610e6e565b61033f610535366004611f35565b611141565b61033f610548366004612061565b6111e1565b6102b861055b366004612098565b6001600160a01b03918216600090815260026020908152604080832093909416825291909152205490565b6102b87fe48329057bfd03d55e49b547132e39cffd9c1820ad7b9d4c5307691425d15adf81565b61033f6105bb366004612061565b61125f565b6105fb6105ce3660046120cb565b600c6020908152600092835260408084209091529082529020805460019091015463ffffffff9091169082565b6040805163ffffffff9093168352602083019190915201610262565b61027e610625366004611f9b565b6001600160a01b031660009081526008602052604090205460ff1690565b61033f610651366004611f9b565b6112dd565b61033f610664366004611fb6565b6113c7565b61039e61dead81565b60606004805461068190612100565b80601f01602080910402602001604051908101604052809291908181526020018280546106ad90612100565b80156106fa5780601f106106cf576101008083540402835291602001916106fa565b820191906000526020600020905b8154815290600101906020018083116106dd57829003601f168201915b5050505050905090565b60006107113384846114df565b5060015b92915050565b6000610728848484611604565b6001600160a01b03841660009081526002602090815260408083203380855292529091205461076391869161075e908690612150565b6114df565b5060019392505050565b6009546001600160a01b031633146107a05760405162461bcd60e51b815260040161079790612167565b60405180910390fd5b6001600160a01b03811661081c5760405162461bcd60e51b815260206004820152603a60248201527f4e61726665783a3a7472616e736665724f70657261746f723a206e6577206f7060448201527f657261746f7220697320746865207a65726f20616464726573730000000000006064820152608401610797565b6009546040516001600160a01b038084169216907f74da04524d50c64947f5dd5381ef1a4dca5cba8ed1d816243f9e48aa0b5617ed90600090a3600980546001600160a01b0319166001600160a01b0392909216919091179055565b3360008181526002602090815260408083206001600160a01b0387168452909152812054909161071191859061075e9086906121ab565b6000546001600160a01b031633146108d95760405162461bcd60e51b8152600401610797906121c3565b6108e382826118c2565b6001600160a01b038083166000908152600b60205260408120546109089216836119aa565b5050565b6109163382611b09565b50565b6009546001600160a01b031633146109435760405162461bcd60e51b815260040161079790612167565b6127108161ffff1611156109e55760405162461bcd60e51b815260206004820152605f60248201527f4e61726665783a3a7570646174654d61785472616e73666572416d6f756e745260448201527f6174653a204d6178207472616e7366657220616d6f756e742072617465206d7560648201527f7374206e6f742065786365656420746865206d6178696d756d20726174652e00608482015260a401610797565b60065460408051630100000090920461ffff90811683528316602083015233917fb62a50fc861a770636e85357becb3b82a32e911106609d4985871eaf29011e08910160405180910390a26006805461ffff90921663010000000264ffff00000019909216919091179055565b6000546001600160a01b03163314610a7c5760405162461bcd60e51b8152600401610797906121c3565b600080546040516001600160a01b03909116907f8be0079c531659141344cd1fd0a4f28419497f9722a3daafe3b4186f6b6457e0908390a3600080546001600160a01b0319169055565b6000438210610b295760405162461bcd60e51b815260206004820152602960248201527f4e61726665783a3a6765745072696f72566f7465733a206e6f74207965742064604482015268195d195c9b5a5b995960ba1b6064820152608401610797565b6001600160a01b0383166000908152600d602052604081205463ffffffff1690819003610b5a576000915050610715565b6001600160a01b0384166000908152600c602052604081208491610b7f6001856121f8565b63ffffffff90811682526020820192909252604001600020541611610be8576001600160a01b0384166000908152600c6020526040812090610bc26001846121f8565b63ffffffff1663ffffffff16815260200190815260200160002060010154915050610715565b6001600160a01b0384166000908152600c6020908152604080832083805290915290205463ffffffff16831015610c23576000915050610715565b600080610c316001846121f8565b90505b8163ffffffff168163ffffffff161115610cf95760006002610c5684846121f8565b610c609190612233565b610c6a90836121f8565b6001600160a01b0388166000908152600c6020908152604080832063ffffffff8086168552908352928190208151808301909252805490931680825260019093015491810191909152919250879003610ccd576020015194506107159350505050565b805163ffffffff16871115610ce457819350610cf2565b610cef6001836121f8565b92505b5050610c34565b506001600160a01b0385166000908152600c6020908152604080832063ffffffff9094168352929052206001015491505092915050565b905090565b60606005805461068190612100565b600080546001600160a01b03163314610d6f5760405162461bcd60e51b8152600401610797906121c3565b610d7933836118c2565b5060015b919050565b3360008181526002602090815260408083206001600160a01b0387168452909152812054909161071191859061075e908690612150565b6000610711338484611604565b6006546000906127109061ffff630100000090910416610de560035490565b610def9190612256565b610d309190612275565b6001600160a01b0381166000908152600d602052604081205463ffffffff1680610e24576000610e67565b6001600160a01b0383166000908152600c6020526040812090610e486001846121f8565b63ffffffff1663ffffffff168152602001908152602001600020600101545b9392505050565b60007f8cad95687ba82c2ce50e74f7b754645e5117c3a5bec8151c0726d5857980a866610e99610672565b80519060200120610ea74690565b60408051602080820195909552808201939093526060830191909152306080808401919091528151808403909101815260a0830182528051908401207fe48329057bfd03d55e49b547132e39cffd9c1820ad7b9d4c5307691425d15adf60c08401526001600160a01b038b1660e084015261010083018a90526101208084018a90528251808503909101815261014084019092528151919093012061190160f01b610160830152610162820183905261018282018190529192506000906101a20160408051601f198184030181528282528051602091820120600080855291840180845281905260ff8a169284019290925260608301889052608083018790529092509060019060a0016020604051602081039080840390855afa158015610fd3573d6000803e3d6000fd5b5050604051601f1901519150506001600160a01b0381166110475760405162461bcd60e51b815260206004820152602860248201527f4e61726665783a3a64656c656761746542795369673a20696e76616c6964207360448201526769676e617475726560c01b6064820152608401610797565b6001600160a01b0381166000908152600e6020526040812080549161106b83612289565b9190505589146110c95760405162461bcd60e51b8152602060048201526024808201527f4e61726665783a3a64656c656761746542795369673a20696e76616c6964206e6044820152636f6e636560e01b6064820152608401610797565b8742111561112a5760405162461bcd60e51b815260206004820152602860248201527f4e61726665783a3a64656c656761746542795369673a207369676e617475726560448201526708195e1c1a5c995960c21b6064820152608401610797565b611134818b611b09565b505050505b505050505050565b6009546001600160a01b0316331461116b5760405162461bcd60e51b815260040161079790612167565b60405163a9059cbb60e01b8152336004820152602481018290526001600160a01b0383169063a9059cbb906044016020604051808303816000875af11580156111b8573d6000803e3d6000fd5b505050506040513d601f19601f820116820180604052508101906111dc91906122a2565b505050565b6009546001600160a01b0316331461120b5760405162461bcd60e51b815260040161079790612167565b6001600160a01b038216600081815260076020526040808220805460ff191685151590811790915590519092917f46e542c7dcc512f9d4c5ef6470efcb6729025d935367e1c2c8dc49d8e35eaa8891a35050565b6009546001600160a01b031633146112895760405162461bcd60e51b815260040161079790612167565b6001600160a01b038216600081815260086020526040808220805460ff191685151590811790915590519092917fb259f09d4d7208218d0e01f99c2deab3ef8e25b79347d579b899a4a346064a4d91a35050565b6000546001600160a01b031633146113075760405162461bcd60e51b8152600401610797906121c3565b6001600160a01b03811661136c5760405162461bcd60e51b815260206004820152602660248201527f4f776e61626c653a206e6577206f776e657220697320746865207a65726f206160448201526564647265737360d01b6064820152608401610797565b600080546040516001600160a01b03808516939216917f8be0079c531659141344cd1fd0a4f28419497f9722a3daafe3b4186f6b6457e091a3600080546001600160a01b0319166001600160a01b0392909216919091179055565b6009546001600160a01b031633146113f15760405162461bcd60e51b815260040161079790612167565b60c88161ffff1611156114785760405162461bcd60e51b815260206004820152604360248201527f4e61726665783a3a7570646174654275726e526174653a204275726e2072617460448201527f65206d757374206e6f742065786365656420746865206d6178696d756d2072616064820152623a329760e91b608482015260a401610797565b6006546040805161010090920461ffff90811683528316602083015233917f3eec69630b6f49d4e10eec296fce4baddec5f34c5430fb2cd72f8c4218f63fd0910160405180910390a26006805461ffff9092166101000262ffff0019909216919091179055565b6001600160a01b0383166115415760405162461bcd60e51b8152602060048201526024808201527f42455032303a20617070726f76652066726f6d20746865207a65726f206164646044820152637265737360e01b6064820152608401610797565b6001600160a01b0382166115a25760405162461bcd60e51b815260206004820152602260248201527f42455032303a20617070726f766520746f20746865207a65726f206164647265604482015261737360f01b6064820152608401610797565b6001600160a01b0383811660008181526002602090815260408083209487168084529482529182902085905590518481527f8c5be1e5ebec7d5bd14f71427d1e84f3dd0314c0f7b2291e5b200ac8c7c3b92591015b60405180910390a3505050565b8282826000611611610dc6565b11156116dd576001600160a01b03831660009081526007602052604090205460ff1615801561165957506001600160a01b03821660009081526007602052604090205460ff16155b156116dd57611666610dc6565b8111156116dd576040805162461bcd60e51b81526020600482015260248101919091527f4e61726665783a3a616e74695768616c653a205472616e7366657220616d6f7560448201527f6e74206578636565647320746865206d61785472616e73666572416d6f756e746064820152608401610797565b6001600160a01b03851661dead148061171357506001600160a01b03861660009081526008602052604090205460ff1615156001145b8061173b57506001600160a01b03851660009081526008602052604090205460ff1615156001145b156117825761174b868686611b89565b6001600160a01b038087166000908152600b602052604080822054888416835291205461177d929182169116866119aa565b611139565b6006546000906127109061179f90610100900461ffff1687612256565b6117a99190612275565b905060006117b78287612150565b90506117c382826121ab565b861461181d5760405162461bcd60e51b8152602060048201526024808201527f4e61726665783a3a7472616e736665723a204275726e2076616c756520696e76604482015263185b1a5960e21b6064820152608401610797565b61182a8861dead84611b89565b6001600160a01b038089166000908152600b602052604081205461dead9091527f44433eeeda1d04bdae79f62169cdb2ab0a6af287fa15706d3fafdbac5fac34155461187b929182169116846119aa565b611886888883611b89565b6001600160a01b038089166000908152600b6020526040808220548a841683529120546118b8929182169116836119aa565b5050505050505050565b6001600160a01b0382166119185760405162461bcd60e51b815260206004820152601f60248201527f42455032303a206d696e7420746f20746865207a65726f2061646472657373006044820152606401610797565b8060035461192691906121ab565b6003556001600160a01b03821660009081526001602052604090205461194d9082906121ab565b6001600160a01b0383166000818152600160205260408082209390935591519091907fddf252ad1be2c89b69c2b068fc378daa952ba7f163c4a11628f55a4df523b3ef9061199e9085815260200190565b60405180910390a35050565b816001600160a01b0316836001600160a01b0316141580156119cc5750600081115b156111dc576001600160a01b03831615611a6f576001600160a01b0383166000908152600d602052604081205463ffffffff169081611a0c576000611a4f565b6001600160a01b0385166000908152600c6020526040812090611a306001856121f8565b63ffffffff1663ffffffff168152602001908152602001600020600101545b90506000611a5d8483612150565b9050611a6b86848484611cf7565b5050505b6001600160a01b038216156111dc576001600160a01b0382166000908152600d602052604081205463ffffffff169081611aaa576000611aed565b6001600160a01b0384166000908152600c6020526040812090611ace6001856121f8565b63ffffffff1663ffffffff168152602001908152602001600020600101545b90506000611afb84836121ab565b905061113985848484611cf7565b6001600160a01b038281166000818152600b6020818152604080842080546001845282862054949093528787166001600160a01b03198416811790915590519190951694919391928592917f3134e8a2e6d97e929a7e54011ea5485d7d196dd5f0ba4d4ef95803e8e3fc257f9190a4611b838284836119aa565b50505050565b6001600160a01b038316611bed5760405162461bcd60e51b815260206004820152602560248201527f42455032303a207472616e736665722066726f6d20746865207a65726f206164604482015264647265737360d81b6064820152608401610797565b6001600160a01b038216611c4f5760405162461bcd60e51b815260206004820152602360248201527f42455032303a207472616e7366657220746f20746865207a65726f206164647260448201526265737360e81b6064820152608401610797565b6001600160a01b038316600090815260016020526040902054611c73908290612150565b6001600160a01b038085166000908152600160205260408082209390935590841681522054611ca39082906121ab565b6001600160a01b0380841660008181526001602052604090819020939093559151908516907fddf252ad1be2c89b69c2b068fc378daa952ba7f163c4a11628f55a4df523b3ef906115f79085815260200190565b6000611d1b436040518060600160405280603681526020016122e860369139611e99565b905060008463ffffffff16118015611d7557506001600160a01b0385166000908152600c6020526040812063ffffffff831691611d596001886121f8565b63ffffffff908116825260208201929092526040016000205416145b15611dbe576001600160a01b0385166000908152600c602052604081208391611d9f6001886121f8565b63ffffffff168152602081019190915260400160002060010155611e4e565b60408051808201825263ffffffff838116825260208083018681526001600160a01b038a166000908152600c83528581208a851682529092529390209151825463ffffffff191691161781559051600191820155611e1d9085906122bf565b6001600160a01b0386166000908152600d60205260409020805463ffffffff191663ffffffff929092169190911790555b60408051848152602081018490526001600160a01b038716917fdec2bacdd2f05b59de34da9b523dff8be42e5e38e818c82fdb0bae774387a724910160405180910390a25050505050565b6000816401000000008410611ec15760405162461bcd60e51b81526004016107979190611ec9565b509192915050565b600060208083528351808285015260005b81811015611ef657858101830151858201604001528201611eda565b81811115611f08576000604083870101525b50601f01601f1916929092016040019392505050565b80356001600160a01b0381168114610d7d57600080fd5b60008060408385031215611f4857600080fd5b611f5183611f1e565b946020939093013593505050565b600080600060608486031215611f7457600080fd5b611f7d84611f1e565b9250611f8b60208501611f1e565b9150604084013590509250925092565b600060208284031215611fad57600080fd5b610e6782611f1e565b600060208284031215611fc857600080fd5b813561ffff81168114610e6757600080fd5b600060208284031215611fec57600080fd5b5035919050565b60008060008060008060c0878903121561200c57600080fd5b61201587611f1e565b95506020870135945060408701359350606087013560ff8116811461203957600080fd5b9598949750929560808101359460a0909101359350915050565b801515811461091657600080fd5b6000806040838503121561207457600080fd5b61207d83611f1e565b9150602083013561208d81612053565b809150509250929050565b600080604083850312156120ab57600080fd5b6120b483611f1e565b91506120c260208401611f1e565b90509250929050565b600080604083850312156120de57600080fd5b6120e783611f1e565b9150602083013563ffffffff8116811461208d57600080fd5b600181811c9082168061211457607f821691505b60208210810361213457634e487b7160e01b600052602260045260246000fd5b50919050565b634e487b7160e01b600052601160045260246000fd5b6000828210156121625761216261213a565b500390565b60208082526024908201527f6f70657261746f723a2063616c6c6572206973206e6f7420746865206f70657260408201526330ba37b960e11b606082015260800190565b600082198211156121be576121be61213a565b500190565b6020808252818101527f4f776e61626c653a2063616c6c6572206973206e6f7420746865206f776e6572604082015260600190565b600063ffffffff838116908316818110156122155761221561213a565b039392505050565b634e487b7160e01b600052601260045260246000fd5b600063ffffffff8084168061224a5761224a61221d565b92169190910492915050565b60008160001904831182151516156122705761227061213a565b500290565b6000826122845761228461221d565b500490565b60006001820161229b5761229b61213a565b5060010190565b6000602082840312156122b457600080fd5b8151610e6781612053565b600063ffffffff8083168185168083038211156122de576122de61213a565b0194935050505056fe4e61726665783a3a5f7772697465436865636b706f696e743a20626c6f636b206e756d62657220657863656564732033322062697473a26469706673582212200dc0019c36da2eda594a7e49733513fe54d876ffeb028caee8156dec6b7f89cc64736f6c634300080d0033",
  "linkReferences": {},
  "deployedLinkReferences": {}
}